{
  "contractName": "Categories",
  "abi": [
    {
      "inputs": [],
      "stateMutability": "nonpayable",
      "type": "constructor"
    },
    {
      "inputs": [
        {
          "internalType": "uint256",
          "name": "",
          "type": "uint256"
        }
      ],
      "name": "categories",
      "outputs": [
        {
          "internalType": "uint256",
          "name": "id",
          "type": "uint256"
        },
        {
          "internalType": "string",
          "name": "name",
          "type": "string"
        },
        {
          "internalType": "string",
          "name": "description",
          "type": "string"
        }
      ],
      "stateMutability": "view",
      "type": "function"
    },
    {
      "inputs": [],
      "name": "categoryId",
      "outputs": [
        {
          "internalType": "uint256",
          "name": "",
          "type": "uint256"
        }
      ],
      "stateMutability": "view",
      "type": "function"
    },
    {
      "inputs": [
        {
          "internalType": "string",
          "name": "name",
          "type": "string"
        },
        {
          "internalType": "string",
          "name": "description",
          "type": "string"
        }
      ],
      "name": "createCategory",
      "outputs": [],
      "stateMutability": "nonpayable",
      "type": "function"
    }
  ],
  "bytecode": "0x6080604052600080553480156200001557600080fd5b50620000926040518060400160405280600681526020017f6e616d652d3100000000000000000000000000000000000000000000000000008152506040518060400160405280600d81526020017f6465736372697074696f6e2d31000000000000000000000000000000000000008152506200019060201b60201c565b6200010e6040518060400160405280600681526020017f6e616d652d3200000000000000000000000000000000000000000000000000008152506040518060400160405280600d81526020017f6465736372697074696f6e2d32000000000000000000000000000000000000008152506200019060201b60201c565b6200018a6040518060400160405280600681526020017f6e616d652d3300000000000000000000000000000000000000000000000000008152506040518060400160405280600d81526020017f6465736372697074696f6e2d33000000000000000000000000000000000000008152506200019060201b60201c565b620003c3565b600080815480929190620001a49062000312565b9190505550604051806060016040528060005481526020018381526020018281525060016000805481526020019081526020016000206000820151816000015560208201518160010190805190602001906200020292919062000229565b5060408201518160020190805190602001906200022192919062000229565b509050505050565b82805462000237906200038e565b90600052602060002090601f0160209004810192826200025b5760008555620002a7565b82601f106200027657805160ff1916838001178555620002a7565b82800160010185558215620002a7579182015b82811115620002a657825182559160200191906001019062000289565b5b509050620002b69190620002ba565b5090565b5b80821115620002d5576000816000905550600101620002bb565b5090565b7f4e487b7100000000000000000000000000000000000000000000000000000000600052601160045260246000fd5b6000819050919050565b60006200031f8262000308565b91507fffffffffffffffffffffffffffffffffffffffffffffffffffffffffffffffff8203620003545762000353620002d9565b5b600182019050919050565b7f4e487b7100000000000000000000000000000000000000000000000000000000600052602260045260246000fd5b60006002820490506001821680620003a757607f821691505b602082108103620003bd57620003bc6200035f565b5b50919050565b61076180620003d36000396000f3fe608060405234801561001057600080fd5b50600436106100415760003560e01c8063b224b4e914610046578063b503a2b914610062578063c6cdbe5e14610080575b600080fd5b610060600480360381019061005b9190610482565b6100b2565b005b61006a610145565b6040516100779190610513565b60405180910390f35b61009a6004803603810190610095919061055a565b61014b565b6040516100a99392919061060f565b60405180910390f35b6000808154809291906100c490610683565b919050555060405180606001604052806000548152602001838152602001828152506001600080548152602001908152602001600020600082015181600001556020820151816001019080519060200190610120929190610285565b50604082015181600201908051906020019061013d929190610285565b509050505050565b60005481565b6001602052806000526040600020600091509050806000015490806001018054610174906106fa565b80601f01602080910402602001604051908101604052809291908181526020018280546101a0906106fa565b80156101ed5780601f106101c2576101008083540402835291602001916101ed565b820191906000526020600020905b8154815290600101906020018083116101d057829003601f168201915b505050505090806002018054610202906106fa565b80601f016020809104026020016040519081016040528092919081815260200182805461022e906106fa565b801561027b5780601f106102505761010080835404028352916020019161027b565b820191906000526020600020905b81548152906001019060200180831161025e57829003601f168201915b5050505050905083565b828054610291906106fa565b90600052602060002090601f0160209004810192826102b357600085556102fa565b82601f106102cc57805160ff19168380011785556102fa565b828001600101855582156102fa579182015b828111156102f95782518255916020019190600101906102de565b5b509050610307919061030b565b5090565b5b8082111561032457600081600090555060010161030c565b5090565b6000604051905090565b600080fd5b600080fd5b600080fd5b600080fd5b6000601f19601f8301169050919050565b7f4e487b7100000000000000000000000000000000000000000000000000000000600052604160045260246000fd5b61038f82610346565b810181811067ffffffffffffffff821117156103ae576103ad610357565b5b80604052505050565b60006103c1610328565b90506103cd8282610386565b919050565b600067ffffffffffffffff8211156103ed576103ec610357565b5b6103f682610346565b9050602081019050919050565b82818337600083830152505050565b6000610425610420846103d2565b6103b7565b90508281526020810184848401111561044157610440610341565b5b61044c848285610403565b509392505050565b600082601f8301126104695761046861033c565b5b8135610479848260208601610412565b91505092915050565b6000806040838503121561049957610498610332565b5b600083013567ffffffffffffffff8111156104b7576104b6610337565b5b6104c385828601610454565b925050602083013567ffffffffffffffff8111156104e4576104e3610337565b5b6104f085828601610454565b9150509250929050565b6000819050919050565b61050d816104fa565b82525050565b60006020820190506105286000830184610504565b92915050565b610537816104fa565b811461054257600080fd5b50565b6000813590506105548161052e565b92915050565b6000602082840312156105705761056f610332565b5b600061057e84828501610545565b91505092915050565b600081519050919050565b600082825260208201905092915050565b60005b838110156105c15780820151818401526020810190506105a6565b838111156105d0576000848401525b50505050565b60006105e182610587565b6105eb8185610592565b93506105fb8185602086016105a3565b61060481610346565b840191505092915050565b60006060820190506106246000830186610504565b818103602083015261063681856105d6565b9050818103604083015261064a81846105d6565b9050949350505050565b7f4e487b7100000000000000000000000000000000000000000000000000000000600052601160045260246000fd5b600061068e826104fa565b91507fffffffffffffffffffffffffffffffffffffffffffffffffffffffffffffffff82036106c0576106bf610654565b5b600182019050919050565b7f4e487b7100000000000000000000000000000000000000000000000000000000600052602260045260246000fd5b6000600282049050600182168061071257607f821691505b602082108103610725576107246106cb565b5b5091905056fea2646970667358221220df06c476013feec456e9623f067dcb0332d9e7e814d4eca1c5ebf28c346d176a64736f6c634300080d0033",
  "immutableReferences": {},
  "source": "// SPDX-License-Identifier: GPL-3.0\npragma solidity ^0.8.13;\n\ncontract Categories {\n    uint256 public categoryId = 0;\n\n    mapping(uint256 => Category) public categories;\n\n    struct Category {\n        uint256 id;\n        string name;\n        string description;\n    }\n\n    constructor() {\n        createCategory(\"name-1\", \"description-1\");\n        createCategory(\"name-2\", \"description-2\");\n        createCategory(\"name-3\", \"description-3\");\n    }\n\n    function createCategory(string memory name, string memory description) public\n    {\n        categoryId++;\n        categories[categoryId] = Category(categoryId, name, description);\n    }\n}\n",
  "sourcePath": "D:\\decentralized-nuclear-fuel-supply-chain-platform\\contracts\\Categories.sol",
  "compiler": {
    "name": "solc",
    "version": "0.8.13+commit.abaa5c0e.Emscripten.clang"
  },
  "schemaVersion": "3.4.11",
  "updatedAt": "2022-12-23T16:06:09.137Z",
  "devdoc": {
    "kind": "dev",
    "methods": {},
    "version": 1
  },
  "userdoc": {
    "kind": "user",
    "methods": {},
    "version": 1
  }
}