{
  "contractName": "Orders",
  "abi": [
    {
      "anonymous": false,
      "inputs": [
        {
          "indexed": false,
          "internalType": "uint256",
          "name": "id",
          "type": "uint256"
        },
        {
          "indexed": false,
          "internalType": "uint256",
          "name": "userId",
          "type": "uint256"
        },
        {
          "indexed": false,
          "internalType": "string",
          "name": "orderDetails",
          "type": "string"
        },
        {
          "indexed": false,
          "internalType": "string",
          "name": "orderStatus",
          "type": "string"
        },
        {
          "indexed": false,
          "internalType": "string",
          "name": "paymentStatus",
          "type": "string"
        },
        {
          "indexed": false,
          "internalType": "string",
          "name": "securityStatus",
          "type": "string"
        },
        {
          "indexed": false,
          "internalType": "string",
          "name": "deliveryStatus",
          "type": "string"
        }
      ],
      "name": "onOrderUpdate",
      "type": "event"
    },
    {
      "inputs": [],
      "name": "orderId",
      "outputs": [
        {
          "internalType": "uint256",
          "name": "",
          "type": "uint256"
        }
      ],
      "stateMutability": "view",
      "type": "function",
      "constant": true
    },
    {
      "inputs": [
        {
          "internalType": "uint256",
          "name": "",
          "type": "uint256"
        }
      ],
      "name": "orders",
      "outputs": [
        {
          "internalType": "uint256",
          "name": "id",
          "type": "uint256"
        },
        {
          "internalType": "uint256",
          "name": "userId",
          "type": "uint256"
        },
        {
          "internalType": "string",
          "name": "orderDetails",
          "type": "string"
        },
        {
          "internalType": "string",
          "name": "orderStatus",
          "type": "string"
        },
        {
          "internalType": "string",
          "name": "paymentStatus",
          "type": "string"
        },
        {
          "internalType": "string",
          "name": "securityStatus",
          "type": "string"
        },
        {
          "internalType": "string",
          "name": "deliveryStatus",
          "type": "string"
        }
      ],
      "stateMutability": "view",
      "type": "function",
      "constant": true
    },
    {
      "inputs": [
        {
          "internalType": "uint256",
          "name": "userId",
          "type": "uint256"
        },
        {
          "internalType": "string",
          "name": "orderDetails",
          "type": "string"
        },
        {
          "internalType": "string",
          "name": "orderStatus",
          "type": "string"
        },
        {
          "internalType": "string",
          "name": "paymentStatus",
          "type": "string"
        },
        {
          "internalType": "string",
          "name": "securityStatus",
          "type": "string"
        },
        {
          "internalType": "string",
          "name": "deliveryStatus",
          "type": "string"
        }
      ],
      "name": "createOrder",
      "outputs": [],
      "stateMutability": "nonpayable",
      "type": "function"
    },
    {
      "inputs": [
        {
          "internalType": "uint256",
          "name": "id",
          "type": "uint256"
        },
        {
          "internalType": "uint256",
          "name": "userId",
          "type": "uint256"
        },
        {
          "internalType": "string",
          "name": "orderDetails",
          "type": "string"
        },
        {
          "internalType": "string",
          "name": "orderStatus",
          "type": "string"
        },
        {
          "internalType": "string",
          "name": "paymentStatus",
          "type": "string"
        },
        {
          "internalType": "string",
          "name": "securityStatus",
          "type": "string"
        },
        {
          "internalType": "string",
          "name": "deliveryStatus",
          "type": "string"
        }
      ],
      "name": "updateOrder",
      "outputs": [],
      "stateMutability": "nonpayable",
      "type": "function"
    },
    {
      "inputs": [
        {
          "internalType": "uint256",
          "name": "id",
          "type": "uint256"
        }
      ],
      "name": "deleteOrder",
      "outputs": [],
      "stateMutability": "nonpayable",
      "type": "function"
    }
  ],
  "bytecode": "0x60806040526000805534801561001457600080fd5b50610e2f806100246000396000f3fe608060405234801561001057600080fd5b50600436106100575760003560e01c806311a003271461005c578063163de5e514610078578063509a5ef4146100965780639de69ef0146100b2578063a85c38ef146100ce575b600080fd5b610076600480360381019061007191906107fb565b610104565b005b610080610194565b60405161008d9190610837565b60405180910390f35b6100b060048036038101906100ab9190610998565b61019a565b005b6100cc60048036038101906100c79190610ac6565b6102d4565b005b6100e860048036038101906100e391906107fb565b6103e4565b6040516100fb9796959493929190610c67565b60405180910390f35b60016000828152602001908152602001600020600080820160009055600182016000905560028201600061013891906106ce565b60038201600061014891906106ce565b60048201600061015891906106ce565b60058201600061016891906106ce565b60068201600061017891906106ce565b505060008081548092919061018c90610d28565b919050555050565b60005481565b6040518060e0016040528088815260200187815260200186815260200185815260200184815260200183815260200182815250600160008981526020019081526020016000206000820151816000015560208201518160010155604082015181600201908051906020019061021092919061070e565b50606082015181600301908051906020019061022d92919061070e565b50608082015181600401908051906020019061024a92919061070e565b5060a082015181600501908051906020019061026792919061070e565b5060c082015181600601908051906020019061028492919061070e565b509050507f2a18b8fa74a0af3960f30791176b9ad5ad825d230c0d201e379caf1c3dec4a8e878787878787876040516102c39796959493929190610c67565b60405180910390a150505050505050565b6000808154809291906102e690610d51565b91905055506040518060e0016040528060005481526020018781526020018681526020018581526020018481526020018381526020018281525060016000805481526020019081526020016000206000820151816000015560208201518160010155604082015181600201908051906020019061036492919061070e565b50606082015181600301908051906020019061038192919061070e565b50608082015181600401908051906020019061039e92919061070e565b5060a08201518160050190805190602001906103bb92919061070e565b5060c08201518160060190805190602001906103d892919061070e565b50905050505050505050565b600160205280600052604060002060009150905080600001549080600101549080600201805461041390610dc8565b80601f016020809104026020016040519081016040528092919081815260200182805461043f90610dc8565b801561048c5780601f106104615761010080835404028352916020019161048c565b820191906000526020600020905b81548152906001019060200180831161046f57829003601f168201915b5050505050908060030180546104a190610dc8565b80601f01602080910402602001604051908101604052809291908181526020018280546104cd90610dc8565b801561051a5780601f106104ef5761010080835404028352916020019161051a565b820191906000526020600020905b8154815290600101906020018083116104fd57829003601f168201915b50505050509080600401805461052f90610dc8565b80601f016020809104026020016040519081016040528092919081815260200182805461055b90610dc8565b80156105a85780601f1061057d576101008083540402835291602001916105a8565b820191906000526020600020905b81548152906001019060200180831161058b57829003601f168201915b5050505050908060050180546105bd90610dc8565b80601f01602080910402602001604051908101604052809291908181526020018280546105e990610dc8565b80156106365780601f1061060b57610100808354040283529160200191610636565b820191906000526020600020905b81548152906001019060200180831161061957829003601f168201915b50505050509080600601805461064b90610dc8565b80601f016020809104026020016040519081016040528092919081815260200182805461067790610dc8565b80156106c45780601f10610699576101008083540402835291602001916106c4565b820191906000526020600020905b8154815290600101906020018083116106a757829003601f168201915b5050505050905087565b5080546106da90610dc8565b6000825580601f106106ec575061070b565b601f01602090049060005260206000209081019061070a9190610794565b5b50565b82805461071a90610dc8565b90600052602060002090601f01602090048101928261073c5760008555610783565b82601f1061075557805160ff1916838001178555610783565b82800160010185558215610783579182015b82811115610782578251825591602001919060010190610767565b5b5090506107909190610794565b5090565b5b808211156107ad576000816000905550600101610795565b5090565b6000604051905090565b600080fd5b600080fd5b6000819050919050565b6107d8816107c5565b81146107e357600080fd5b50565b6000813590506107f5816107cf565b92915050565b600060208284031215610811576108106107bb565b5b600061081f848285016107e6565b91505092915050565b610831816107c5565b82525050565b600060208201905061084c6000830184610828565b92915050565b600080fd5b600080fd5b6000601f19601f8301169050919050565b7f4e487b7100000000000000000000000000000000000000000000000000000000600052604160045260246000fd5b6108a58261085c565b810181811067ffffffffffffffff821117156108c4576108c361086d565b5b80604052505050565b60006108d76107b1565b90506108e3828261089c565b919050565b600067ffffffffffffffff8211156109035761090261086d565b5b61090c8261085c565b9050602081019050919050565b82818337600083830152505050565b600061093b610936846108e8565b6108cd565b90508281526020810184848401111561095757610956610857565b5b610962848285610919565b509392505050565b600082601f83011261097f5761097e610852565b5b813561098f848260208601610928565b91505092915050565b600080600080600080600060e0888a0312156109b7576109b66107bb565b5b60006109c58a828b016107e6565b97505060206109d68a828b016107e6565b965050604088013567ffffffffffffffff8111156109f7576109f66107c0565b5b610a038a828b0161096a565b955050606088013567ffffffffffffffff811115610a2457610a236107c0565b5b610a308a828b0161096a565b945050608088013567ffffffffffffffff811115610a5157610a506107c0565b5b610a5d8a828b0161096a565b93505060a088013567ffffffffffffffff811115610a7e57610a7d6107c0565b5b610a8a8a828b0161096a565b92505060c088013567ffffffffffffffff811115610aab57610aaa6107c0565b5b610ab78a828b0161096a565b91505092959891949750929550565b60008060008060008060c08789031215610ae357610ae26107bb565b5b6000610af189828a016107e6565b965050602087013567ffffffffffffffff811115610b1257610b116107c0565b5b610b1e89828a0161096a565b955050604087013567ffffffffffffffff811115610b3f57610b3e6107c0565b5b610b4b89828a0161096a565b945050606087013567ffffffffffffffff811115610b6c57610b6b6107c0565b5b610b7889828a0161096a565b935050608087013567ffffffffffffffff811115610b9957610b986107c0565b5b610ba589828a0161096a565b92505060a087013567ffffffffffffffff811115610bc657610bc56107c0565b5b610bd289828a0161096a565b9150509295509295509295565b600081519050919050565b600082825260208201905092915050565b60005b83811015610c19578082015181840152602081019050610bfe565b83811115610c28576000848401525b50505050565b6000610c3982610bdf565b610c438185610bea565b9350610c53818560208601610bfb565b610c5c8161085c565b840191505092915050565b600060e082019050610c7c600083018a610828565b610c896020830189610828565b8181036040830152610c9b8188610c2e565b90508181036060830152610caf8187610c2e565b90508181036080830152610cc38186610c2e565b905081810360a0830152610cd78185610c2e565b905081810360c0830152610ceb8184610c2e565b905098975050505050505050565b7f4e487b7100000000000000000000000000000000000000000000000000000000600052601160045260246000fd5b6000610d33826107c5565b915060008203610d4657610d45610cf9565b5b600182039050919050565b6000610d5c826107c5565b91507fffffffffffffffffffffffffffffffffffffffffffffffffffffffffffffffff8203610d8e57610d8d610cf9565b5b600182019050919050565b7f4e487b7100000000000000000000000000000000000000000000000000000000600052602260045260246000fd5b60006002820490506001821680610de057607f821691505b602082108103610df357610df2610d99565b5b5091905056fea26469706673582212204074f3f993da39e10baeaa7d33851f95cced1f6fa82e9f148dc67b6c9b52f67864736f6c634300080d0033",
  "immutableReferences": {},
  "source": "// SPDX-License-Identifier: GPL-3.0\npragma solidity ^0.8.13;\n\ncontract Orders {\n  uint256 public orderId = 0;\n\n  mapping(uint256 => Order) public orders;\n\n  struct Order {\n    uint256 id;\n    uint256 userId;\n    string orderDetails;\n    string orderStatus;\n    string paymentStatus;\n    string securityStatus;\n    string deliveryStatus;\n  }\n\n  event onOrderUpdate(\n    uint256 id,\n    uint256 userId,\n    string orderDetails,\n    string orderStatus,\n    string paymentStatus,\n    string securityStatus,\n    string deliveryStatus\n  );\n\n  // constructor(){\n  //   createOrder(\n  //     1,\n  //      \"{\\\"providerIds\\\":[\\\"3\\\"],\\\"importerIds\\\":[\\\"2\\\"],\\\"supplierIds\\\":[\\\"4\\\"],\\\"securityIds\\\":[\\\"5\\\"],\\\"products\\\":[{\\\"material\\\":\\\"uranium\\\",\\\"quantity\\\":1}],\\\"unitPrice\\\":0,\\\"date\\\":\\\"2022-12-28T14:25:24.316Z\\\"}\",\n  //      \"{\\\"providerApproval\\\":\\\"pending\\\",\\\"importerApproval\\\":\\\"pending\\\",\\\"supplierApproval\\\":\\\"pending\\\",\\\"securityApproval\\\":\\\"pending\\\",\\\"orderStatus\\\":\\\"pending\\\"}\",\n  //      \"{\\\"providerPayment\\\":\\\"pending\\\",\\\"importerPayment\\\":\\\"pending\\\",\\\"supplierPayment\\\":\\\"pending\\\",\\\"securityPayment\\\":\\\"pending\\\"}\",\n  //      \"{\\\"state\\\":true,\\\"milestones\\\":\\\"1/1\\\",\\\"validation\\\":\\\"pending\\\"}\",\n  //      \"{\\\"location\\\":\\\"\\\",\\\"eta\\\":\\\"\\\"}\"\n  //     );\n  // }\n\n  function createOrder(\n    uint256 userId,\n    string memory orderDetails,\n    string memory orderStatus,\n    string memory paymentStatus,\n    string memory securityStatus,\n    string memory deliveryStatus\n  ) public {\n    orderId++;\n    orders[orderId] = Order(\n      orderId,\n      userId,\n      orderDetails,\n      orderStatus,\n      paymentStatus,\n      securityStatus,\n      deliveryStatus\n    );\n  }\n\n  function updateOrder(\n    uint256 id,\n    uint256 userId,\n    string memory orderDetails,\n    string memory orderStatus,\n    string memory paymentStatus,\n    string memory securityStatus,\n    string memory deliveryStatus\n  ) public {\n    orders[id] = Order(\n      id,\n      userId,\n      orderDetails,\n      orderStatus,\n      paymentStatus,\n      securityStatus,\n      deliveryStatus\n    );\n\n    emit onOrderUpdate(\n      id,\n      userId,\n      orderDetails,\n      orderStatus,\n      paymentStatus,\n      securityStatus,\n      deliveryStatus\n    );\n  }\n\n  function deleteOrder(uint256 id) public {\n    delete orders[id];\n    orderId--;\n  }\n}\n",
  "sourcePath": "D:\\decentralized-nuclear-fuel-supply-chain-platform\\contracts\\Orders.sol",
  "compiler": {
    "name": "solc",
    "version": "0.8.13+commit.abaa5c0e.Emscripten.clang"
  },
  "schemaVersion": "3.4.11",
  "updatedAt": "2023-01-18T11:56:42.696Z",
  "networkType": "ethereum",
  "devdoc": {
    "kind": "dev",
    "methods": {},
    "version": 1
  },
  "userdoc": {
    "kind": "user",
    "methods": {},
    "version": 1
  }
}