{
  "contractName": "Products",
  "abi": [
    {
      "inputs": [],
      "stateMutability": "nonpayable",
      "type": "constructor"
    },
    {
      "inputs": [],
      "name": "productId",
      "outputs": [
        {
          "internalType": "uint256",
          "name": "",
          "type": "uint256"
        }
      ],
      "stateMutability": "view",
      "type": "function"
    },
    {
      "inputs": [
        {
          "internalType": "uint256",
          "name": "",
          "type": "uint256"
        }
      ],
      "name": "products",
      "outputs": [
        {
          "internalType": "uint256",
          "name": "id",
          "type": "uint256"
        },
        {
          "internalType": "string",
          "name": "name",
          "type": "string"
        },
        {
          "internalType": "string",
          "name": "description",
          "type": "string"
        },
        {
          "internalType": "uint256",
          "name": "price",
          "type": "uint256"
        },
        {
          "internalType": "uint256",
          "name": "categoryId",
          "type": "uint256"
        }
      ],
      "stateMutability": "view",
      "type": "function"
    },
    {
      "inputs": [
        {
          "internalType": "string",
          "name": "name",
          "type": "string"
        },
        {
          "internalType": "string",
          "name": "description",
          "type": "string"
        },
        {
          "internalType": "uint256",
          "name": "price",
          "type": "uint256"
        },
        {
          "internalType": "uint256",
          "name": "categoryId",
          "type": "uint256"
        }
      ],
      "name": "createProduct",
      "outputs": [],
      "stateMutability": "nonpayable",
      "type": "function"
    }
  ],
  "bytecode": "0x6080604052600080553480156200001557600080fd5b50620000966040518060400160405280600681526020017f6e616d652d3100000000000000000000000000000000000000000000000000008152506040518060400160405280600d81526020017f6465736372697074696f6e2d3100000000000000000000000000000000000000815250606460016200019d60201b60201c565b620001166040518060400160405280600681526020017f6e616d652d3200000000000000000000000000000000000000000000000000008152506040518060400160405280600d81526020017f6465736372697074696f6e2d320000000000000000000000000000000000000081525060c860026200019d60201b60201c565b620001976040518060400160405280600681526020017f6e616d652d3300000000000000000000000000000000000000000000000000008152506040518060400160405280600d81526020017f6465736372697074696f6e2d330000000000000000000000000000000000000081525061012c60036200019d60201b60201c565b620003f2565b600080815480929190620001b19062000341565b91905055506040518060a0016040528060005481526020018581526020018481526020018381526020018281525060016000805481526020019081526020016000206000820151816000015560208201518160010190805190602001906200021b92919062000258565b5060408201518160020190805190602001906200023a92919062000258565b50606082015181600301556080820151816004015590505050505050565b8280546200026690620003bd565b90600052602060002090601f0160209004810192826200028a5760008555620002d6565b82601f10620002a557805160ff1916838001178555620002d6565b82800160010185558215620002d6579182015b82811115620002d5578251825591602001919060010190620002b8565b5b509050620002e59190620002e9565b5090565b5b8082111562000304576000816000905550600101620002ea565b5090565b7f4e487b7100000000000000000000000000000000000000000000000000000000600052601160045260246000fd5b6000819050919050565b60006200034e8262000337565b91507fffffffffffffffffffffffffffffffffffffffffffffffffffffffffffffffff820362000383576200038262000308565b5b600182019050919050565b7f4e487b7100000000000000000000000000000000000000000000000000000000600052602260045260246000fd5b60006002820490506001821680620003d657607f821691505b602082108103620003ec57620003eb6200038e565b5b50919050565b6107d480620004026000396000f3fe608060405234801561001057600080fd5b50600436106100415760003560e01c80637acc0b201461004657806390d16cba1461007a578063c5ce391114610096575b600080fd5b610060600480360381019061005b91906103a2565b6100b4565b604051610071959493929190610477565b60405180910390f35b610094600480360381019061008f919061060d565b6101fa565b005b61009e6102af565b6040516100ab91906106ac565b60405180910390f35b60016020528060005260406000206000915090508060000154908060010180546100dd906106f6565b80601f0160208091040260200160405190810160405280929190818152602001828054610109906106f6565b80156101565780601f1061012b57610100808354040283529160200191610156565b820191906000526020600020905b81548152906001019060200180831161013957829003601f168201915b50505050509080600201805461016b906106f6565b80601f0160208091040260200160405190810160405280929190818152602001828054610197906106f6565b80156101e45780601f106101b9576101008083540402835291602001916101e4565b820191906000526020600020905b8154815290600101906020018083116101c757829003601f168201915b5050505050908060030154908060040154905085565b60008081548092919061020c90610756565b91905055506040518060a0016040528060005481526020018581526020018481526020018381526020018281525060016000805481526020019081526020016000206000820151816000015560208201518160010190805190602001906102749291906102b5565b5060408201518160020190805190602001906102919291906102b5565b50606082015181600301556080820151816004015590505050505050565b60005481565b8280546102c1906106f6565b90600052602060002090601f0160209004810192826102e3576000855561032a565b82601f106102fc57805160ff191683800117855561032a565b8280016001018555821561032a579182015b8281111561032957825182559160200191906001019061030e565b5b509050610337919061033b565b5090565b5b8082111561035457600081600090555060010161033c565b5090565b6000604051905090565b600080fd5b600080fd5b6000819050919050565b61037f8161036c565b811461038a57600080fd5b50565b60008135905061039c81610376565b92915050565b6000602082840312156103b8576103b7610362565b5b60006103c68482850161038d565b91505092915050565b6103d88161036c565b82525050565b600081519050919050565b600082825260208201905092915050565b60005b838110156104185780820151818401526020810190506103fd565b83811115610427576000848401525b50505050565b6000601f19601f8301169050919050565b6000610449826103de565b61045381856103e9565b93506104638185602086016103fa565b61046c8161042d565b840191505092915050565b600060a08201905061048c60008301886103cf565b818103602083015261049e818761043e565b905081810360408301526104b2818661043e565b90506104c160608301856103cf565b6104ce60808301846103cf565b9695505050505050565b600080fd5b600080fd5b7f4e487b7100000000000000000000000000000000000000000000000000000000600052604160045260246000fd5b61051a8261042d565b810181811067ffffffffffffffff82111715610539576105386104e2565b5b80604052505050565b600061054c610358565b90506105588282610511565b919050565b600067ffffffffffffffff821115610578576105776104e2565b5b6105818261042d565b9050602081019050919050565b82818337600083830152505050565b60006105b06105ab8461055d565b610542565b9050828152602081018484840111156105cc576105cb6104dd565b5b6105d784828561058e565b509392505050565b600082601f8301126105f4576105f36104d8565b5b813561060484826020860161059d565b91505092915050565b6000806000806080858703121561062757610626610362565b5b600085013567ffffffffffffffff81111561064557610644610367565b5b610651878288016105df565b945050602085013567ffffffffffffffff81111561067257610671610367565b5b61067e878288016105df565b935050604061068f8782880161038d565b92505060606106a08782880161038d565b91505092959194509250565b60006020820190506106c160008301846103cf565b92915050565b7f4e487b7100000000000000000000000000000000000000000000000000000000600052602260045260246000fd5b6000600282049050600182168061070e57607f821691505b602082108103610721576107206106c7565b5b50919050565b7f4e487b7100000000000000000000000000000000000000000000000000000000600052601160045260246000fd5b60006107618261036c565b91507fffffffffffffffffffffffffffffffffffffffffffffffffffffffffffffffff820361079357610792610727565b5b60018201905091905056fea264697066735822122068a3ea29c5289203182b17927a43558eaed54e6c3c12fa523fd03163eb48a6d564736f6c634300080d0033",
  "immutableReferences": {},
  "source": "// SPDX-License-Identifier: GPL-3.0\r\npragma solidity ^0.8.13;\r\n\r\ncontract Products {\r\n    uint256 public productId = 0;\r\n\r\n    mapping(uint256 => Product) public products;\r\n\r\n    struct Product {\r\n        uint256 id;\r\n        string name;\r\n        string description;\r\n        uint256 price;\r\n        uint256 categoryId;\r\n    }\r\n\r\n    constructor() {\r\n        createProduct(\"name-1\", \"description-1\", 100, 1);\r\n        createProduct(\"name-2\", \"description-2\", 200, 2);\r\n        createProduct(\"name-3\", \"description-3\", 300, 3);\r\n    }\r\n\r\n    function createProduct(\r\n        string memory name,\r\n        string memory description,\r\n        uint256 price,\r\n        uint256 categoryId\r\n    ) public {\r\n        productId++;\r\n        products[productId] = Product(\r\n            productId,\r\n            name,\r\n            description,\r\n            price,\r\n            categoryId\r\n        );\r\n    }\r\n}\r\n",
  "sourcePath": "D:\\decentralized-nuclear-fuel-supply-chain-platform\\contracts\\Products.sol",
  "compiler": {
    "name": "solc",
    "version": "0.8.13+commit.abaa5c0e.Emscripten.clang"
  },
  "schemaVersion": "3.4.11",
  "updatedAt": "2022-12-22T13:13:59.864Z",
  "devdoc": {
    "kind": "dev",
    "methods": {},
    "version": 1
  },
  "userdoc": {
    "kind": "user",
    "methods": {},
    "version": 1
  }
}