{
  "contractName": "Users",
  "abi": [
    {
      "inputs": [],
      "stateMutability": "nonpayable",
      "type": "constructor"
    },
    {
      "inputs": [],
      "name": "userId",
      "outputs": [
        {
          "internalType": "uint32",
          "name": "",
          "type": "uint32"
        }
      ],
      "stateMutability": "view",
      "type": "function",
      "constant": true
    },
    {
      "inputs": [
        {
          "internalType": "uint32",
          "name": "",
          "type": "uint32"
        }
      ],
      "name": "users",
      "outputs": [
        {
          "internalType": "uint32",
          "name": "id",
          "type": "uint32"
        },
        {
          "internalType": "string",
          "name": "name",
          "type": "string"
        },
        {
          "internalType": "string",
          "name": "accountHash",
          "type": "string"
        },
        {
          "internalType": "string",
          "name": "role",
          "type": "string"
        }
      ],
      "stateMutability": "view",
      "type": "function",
      "constant": true
    },
    {
      "inputs": [
        {
          "internalType": "string",
          "name": "name",
          "type": "string"
        },
        {
          "internalType": "string",
          "name": "accountHash",
          "type": "string"
        },
        {
          "internalType": "string",
          "name": "role",
          "type": "string"
        }
      ],
      "name": "createUser",
      "outputs": [],
      "stateMutability": "nonpayable",
      "type": "function"
    },
    {
      "inputs": [
        {
          "internalType": "uint32",
          "name": "id",
          "type": "uint32"
        }
      ],
      "name": "getUser",
      "outputs": [
        {
          "components": [
            {
              "internalType": "uint32",
              "name": "id",
              "type": "uint32"
            },
            {
              "internalType": "string",
              "name": "name",
              "type": "string"
            },
            {
              "internalType": "string",
              "name": "accountHash",
              "type": "string"
            },
            {
              "internalType": "string",
              "name": "role",
              "type": "string"
            }
          ],
          "internalType": "struct Users.User",
          "name": "",
          "type": "tuple"
        }
      ],
      "stateMutability": "view",
      "type": "function",
      "constant": true
    },
    {
      "inputs": [
        {
          "internalType": "string",
          "name": "accountHash",
          "type": "string"
        }
      ],
      "name": "getUserByAccountHash",
      "outputs": [
        {
          "components": [
            {
              "internalType": "uint32",
              "name": "id",
              "type": "uint32"
            },
            {
              "internalType": "string",
              "name": "name",
              "type": "string"
            },
            {
              "internalType": "string",
              "name": "accountHash",
              "type": "string"
            },
            {
              "internalType": "string",
              "name": "role",
              "type": "string"
            }
          ],
          "internalType": "struct Users.User",
          "name": "",
          "type": "tuple"
        }
      ],
      "stateMutability": "view",
      "type": "function",
      "constant": true
    },
    {
      "inputs": [
        {
          "internalType": "uint32",
          "name": "id",
          "type": "uint32"
        },
        {
          "internalType": "string",
          "name": "name",
          "type": "string"
        },
        {
          "internalType": "string",
          "name": "accountHash",
          "type": "string"
        },
        {
          "internalType": "string",
          "name": "role",
          "type": "string"
        }
      ],
      "name": "updateUser",
      "outputs": [],
      "stateMutability": "nonpayable",
      "type": "function"
    },
    {
      "inputs": [
        {
          "internalType": "uint32",
          "name": "id",
          "type": "uint32"
        },
        {
          "internalType": "string",
          "name": "accountHash",
          "type": "string"
        }
      ],
      "name": "deleteUser",
      "outputs": [],
      "stateMutability": "nonpayable",
      "type": "function"
    }
  ],
  "bytecode": "0x608060405260008060006101000a81548163ffffffff021916908363ffffffff1602179055503480156200003257600080fd5b50620000c96040518060400160405280600581526020017f41646d696e0000000000000000000000000000000000000000000000000000008152506040518060600160405280602a815260200162001d80602a91396040518060400160405280600581526020017f41646d696e0000000000000000000000000000000000000000000000000000008152506200034860201b60201c565b6200015f6040518060400160405280600881526020017f496d706f727465720000000000000000000000000000000000000000000000008152506040518060600160405280602a815260200162001dd4602a91396040518060400160405280600881526020017f496d706f727465720000000000000000000000000000000000000000000000008152506200034860201b60201c565b620001f56040518060400160405280600881526020017f50726f76696465720000000000000000000000000000000000000000000000008152506040518060600160405280602a815260200162001d56602a91396040518060400160405280600881526020017f50726f76696465720000000000000000000000000000000000000000000000008152506200034860201b60201c565b6200028b6040518060400160405280600881526020017f537570706c6965720000000000000000000000000000000000000000000000008152506040518060600160405280602a815260200162001dfe602a91396040518060400160405280600881526020017f537570706c6965720000000000000000000000000000000000000000000000008152506200034860201b60201c565b620003216040518060400160405280600881526020017f53656375726974790000000000000000000000000000000000000000000000008152506040518060600160405280602a815260200162001daa602a91396040518060400160405280600881526020017f53656375726974790000000000000000000000000000000000000000000000008152506200034860201b60201c565b60056000806101000a81548163ffffffff021916908363ffffffff160217905550620007ef565b6001826040516200035a919062000659565b908152602001604051809103902060009054906101000a900460ff1615620003b9576040517f08c379a0000000000000000000000000000000000000000000000000000000008152600401620003b090620006f9565b60405180910390fd5b60018083604051620003cc919062000659565b908152602001604051809103902060006101000a81548160ff02191690831515021790555060008081819054906101000a900463ffffffff168092919062000414906200075a565b91906101000a81548163ffffffff021916908363ffffffff16021790555050604051806080016040528060008054906101000a900463ffffffff1663ffffffff16815260200184815260200183815260200182815250600260008060009054906101000a900463ffffffff1663ffffffff1663ffffffff16815260200190815260200160002060008201518160000160006101000a81548163ffffffff021916908363ffffffff1602179055506020820151816001019080519060200190620004df92919062000526565b506040820151816002019080519060200190620004fe92919062000526565b5060608201518160030190805190602001906200051d92919062000526565b50905050505050565b8280546200053490620007ba565b90600052602060002090601f016020900481019282620005585760008555620005a4565b82601f106200057357805160ff1916838001178555620005a4565b82800160010185558215620005a4579182015b82811115620005a357825182559160200191906001019062000586565b5b509050620005b39190620005b7565b5090565b5b80821115620005d2576000816000905550600101620005b8565b5090565b600081519050919050565b600081905092915050565b60005b838110156200060c578082015181840152602081019050620005ef565b838111156200061c576000848401525b50505050565b60006200062f82620005d6565b6200063b8185620005e1565b93506200064d818560208601620005ec565b80840191505092915050565b600062000667828462000622565b915081905092915050565b600082825260208201905092915050565b7f54686973206163636f756e742020697320616c7265616479207265676973746560008201527f7265640000000000000000000000000000000000000000000000000000000000602082015250565b6000620006e160238362000672565b9150620006ee8262000683565b604082019050919050565b600060208201905081810360008301526200071481620006d2565b9050919050565b7f4e487b7100000000000000000000000000000000000000000000000000000000600052601160045260246000fd5b600063ffffffff82169050919050565b600062000767826200074a565b915063ffffffff820362000780576200077f6200071b565b5b600182019050919050565b7f4e487b7100000000000000000000000000000000000000000000000000000000600052602260045260246000fd5b60006002820490506001821680620007d357607f821691505b602082108103620007e957620007e86200078b565b5b50919050565b61155780620007ff6000396000f3fe608060405234801561001057600080fd5b506004361061007d5760003560e01c80637f0805ca1161005b5780637f0805ca146100d857806385763ae714610108578063db6f1e7414610124578063e2226a56146101545761007d565b80634d37f73f14610082578063589759191461009e57806359ae069b146100bc575b600080fd5b61009c60048036038101906100979190610e81565b610187565b005b6100a6610254565b6040516100b39190610f4b565b60405180910390f35b6100d660048036038101906100d19190610f66565b610268565b005b6100f260048036038101906100ed919061100d565b610437565b6040516100ff919061115e565b60405180910390f35b610122600480360381019061011d9190611180565b610712565b005b61013e600480360381019061013991906111dc565b6107ed565b60405161014b919061115e565b60405180910390f35b61016e600480360381019061016991906111dc565b610a02565b60405161017e9493929190611253565b60405180910390f35b60405180608001604052808563ffffffff16815260200184815260200183815260200182815250600260008663ffffffff1663ffffffff16815260200190815260200160002060008201518160000160006101000a81548163ffffffff021916908363ffffffff1602179055506020820151816001019080519060200190610210929190610bda565b50604082015181600201908051906020019061022d929190610bda565b50606082015181600301908051906020019061024a929190610bda565b5090505050505050565b60008054906101000a900463ffffffff1681565b60018260405161027891906112e9565b908152602001604051809103902060009054906101000a900460ff16156102d4576040517f08c379a00000000000000000000000000000000000000000000000000000000081526004016102cb90611372565b60405180910390fd5b600180836040516102e591906112e9565b908152602001604051809103902060006101000a81548160ff02191690831515021790555060008081819054906101000a900463ffffffff168092919061032b906113c1565b91906101000a81548163ffffffff021916908363ffffffff16021790555050604051806080016040528060008054906101000a900463ffffffff1663ffffffff16815260200184815260200183815260200182815250600260008060009054906101000a900463ffffffff1663ffffffff1663ffffffff16815260200190815260200160002060008201518160000160006101000a81548163ffffffff021916908363ffffffff16021790555060208201518160010190805190602001906103f4929190610bda565b506040820151816002019080519060200190610411929190610bda565b50606082015181600301908051906020019061042e929190610bda565b50905050505050565b61043f610c60565b610447610c60565b6000600190505b60008054906101000a900463ffffffff1663ffffffff168163ffffffff1611610707578360405160200161048291906112e9565b60405160208183030381529060405280519060200120600260008363ffffffff1663ffffffff1681526020019081526020016000206002016040516020016104ca91906114e1565b60405160208183030381529060405280519060200120036106f457600260008263ffffffff1663ffffffff1681526020019081526020016000206040518060800160405290816000820160009054906101000a900463ffffffff1663ffffffff1663ffffffff1681526020016001820180546105459061141c565b80601f01602080910402602001604051908101604052809291908181526020018280546105719061141c565b80156105be5780601f10610593576101008083540402835291602001916105be565b820191906000526020600020905b8154815290600101906020018083116105a157829003601f168201915b505050505081526020016002820180546105d79061141c565b80601f01602080910402602001604051908101604052809291908181526020018280546106039061141c565b80156106505780601f1061062557610100808354040283529160200191610650565b820191906000526020600020905b81548152906001019060200180831161063357829003601f168201915b505050505081526020016003820180546106699061141c565b80601f01602080910402602001604051908101604052809291908181526020018280546106959061141c565b80156106e25780601f106106b7576101008083540402835291602001916106e2565b820191906000526020600020905b8154815290600101906020018083116106c557829003601f168201915b5050505050815250509250505061070d565b80806106ff906113c1565b91505061044e565b50809150505b919050565b600260008363ffffffff1663ffffffff168152602001908152602001600020600080820160006101000a81549063ffffffff02191690556001820160006107599190610c8e565b6002820160006107699190610c8e565b6003820160006107799190610c8e565b505060018160405161078b91906112e9565b908152602001604051809103902060006101000a81549060ff021916905560008081819054906101000a900463ffffffff16809291906107ca906114f8565b91906101000a81548163ffffffff021916908363ffffffff160217905550505050565b6107f5610c60565b600260008363ffffffff1663ffffffff1681526020019081526020016000206040518060800160405290816000820160009054906101000a900463ffffffff1663ffffffff1663ffffffff1681526020016001820180546108559061141c565b80601f01602080910402602001604051908101604052809291908181526020018280546108819061141c565b80156108ce5780601f106108a3576101008083540402835291602001916108ce565b820191906000526020600020905b8154815290600101906020018083116108b157829003601f168201915b505050505081526020016002820180546108e79061141c565b80601f01602080910402602001604051908101604052809291908181526020018280546109139061141c565b80156109605780601f1061093557610100808354040283529160200191610960565b820191906000526020600020905b81548152906001019060200180831161094357829003601f168201915b505050505081526020016003820180546109799061141c565b80601f01602080910402602001604051908101604052809291908181526020018280546109a59061141c565b80156109f25780601f106109c7576101008083540402835291602001916109f2565b820191906000526020600020905b8154815290600101906020018083116109d557829003601f168201915b5050505050815250509050919050565b60026020528060005260406000206000915090508060000160009054906101000a900463ffffffff1690806001018054610a3b9061141c565b80601f0160208091040260200160405190810160405280929190818152602001828054610a679061141c565b8015610ab45780601f10610a8957610100808354040283529160200191610ab4565b820191906000526020600020905b815481529060010190602001808311610a9757829003601f168201915b505050505090806002018054610ac99061141c565b80601f0160208091040260200160405190810160405280929190818152602001828054610af59061141c565b8015610b425780601f10610b1757610100808354040283529160200191610b42565b820191906000526020600020905b815481529060010190602001808311610b2557829003601f168201915b505050505090806003018054610b579061141c565b80601f0160208091040260200160405190810160405280929190818152602001828054610b839061141c565b8015610bd05780601f10610ba557610100808354040283529160200191610bd0565b820191906000526020600020905b815481529060010190602001808311610bb357829003601f168201915b5050505050905084565b828054610be69061141c565b90600052602060002090601f016020900481019282610c085760008555610c4f565b82601f10610c2157805160ff1916838001178555610c4f565b82800160010185558215610c4f579182015b82811115610c4e578251825591602001919060010190610c33565b5b509050610c5c9190610cce565b5090565b6040518060800160405280600063ffffffff1681526020016060815260200160608152602001606081525090565b508054610c9a9061141c565b6000825580601f10610cac5750610ccb565b601f016020900490600052602060002090810190610cca9190610cce565b5b50565b5b80821115610ce7576000816000905550600101610ccf565b5090565b6000604051905090565b600080fd5b600080fd5b600063ffffffff82169050919050565b610d1881610cff565b8114610d2357600080fd5b50565b600081359050610d3581610d0f565b92915050565b600080fd5b600080fd5b6000601f19601f8301169050919050565b7f4e487b7100000000000000000000000000000000000000000000000000000000600052604160045260246000fd5b610d8e82610d45565b810181811067ffffffffffffffff82111715610dad57610dac610d56565b5b80604052505050565b6000610dc0610ceb565b9050610dcc8282610d85565b919050565b600067ffffffffffffffff821115610dec57610deb610d56565b5b610df582610d45565b9050602081019050919050565b82818337600083830152505050565b6000610e24610e1f84610dd1565b610db6565b905082815260208101848484011115610e4057610e3f610d40565b5b610e4b848285610e02565b509392505050565b600082601f830112610e6857610e67610d3b565b5b8135610e78848260208601610e11565b91505092915050565b60008060008060808587031215610e9b57610e9a610cf5565b5b6000610ea987828801610d26565b945050602085013567ffffffffffffffff811115610eca57610ec9610cfa565b5b610ed687828801610e53565b935050604085013567ffffffffffffffff811115610ef757610ef6610cfa565b5b610f0387828801610e53565b925050606085013567ffffffffffffffff811115610f2457610f23610cfa565b5b610f3087828801610e53565b91505092959194509250565b610f4581610cff565b82525050565b6000602082019050610f606000830184610f3c565b92915050565b600080600060608486031215610f7f57610f7e610cf5565b5b600084013567ffffffffffffffff811115610f9d57610f9c610cfa565b5b610fa986828701610e53565b935050602084013567ffffffffffffffff811115610fca57610fc9610cfa565b5b610fd686828701610e53565b925050604084013567ffffffffffffffff811115610ff757610ff6610cfa565b5b61100386828701610e53565b9150509250925092565b60006020828403121561102357611022610cf5565b5b600082013567ffffffffffffffff81111561104157611040610cfa565b5b61104d84828501610e53565b91505092915050565b61105f81610cff565b82525050565b600081519050919050565b600082825260208201905092915050565b60005b8381101561109f578082015181840152602081019050611084565b838111156110ae576000848401525b50505050565b60006110bf82611065565b6110c98185611070565b93506110d9818560208601611081565b6110e281610d45565b840191505092915050565b60006080830160008301516111056000860182611056565b506020830151848203602086015261111d82826110b4565b9150506040830151848203604086015261113782826110b4565b9150506060830151848203606086015261115182826110b4565b9150508091505092915050565b6000602082019050818103600083015261117881846110ed565b905092915050565b6000806040838503121561119757611196610cf5565b5b60006111a585828601610d26565b925050602083013567ffffffffffffffff8111156111c6576111c5610cfa565b5b6111d285828601610e53565b9150509250929050565b6000602082840312156111f2576111f1610cf5565b5b600061120084828501610d26565b91505092915050565b600082825260208201905092915050565b600061122582611065565b61122f8185611209565b935061123f818560208601611081565b61124881610d45565b840191505092915050565b60006080820190506112686000830187610f3c565b818103602083015261127a818661121a565b9050818103604083015261128e818561121a565b905081810360608301526112a2818461121a565b905095945050505050565b600081905092915050565b60006112c382611065565b6112cd81856112ad565b93506112dd818560208601611081565b80840191505092915050565b60006112f582846112b8565b915081905092915050565b7f54686973206163636f756e742020697320616c7265616479207265676973746560008201527f7265640000000000000000000000000000000000000000000000000000000000602082015250565b600061135c602383611209565b915061136782611300565b604082019050919050565b6000602082019050818103600083015261138b8161134f565b9050919050565b7f4e487b7100000000000000000000000000000000000000000000000000000000600052601160045260246000fd5b60006113cc82610cff565b915063ffffffff82036113e2576113e1611392565b5b600182019050919050565b7f4e487b7100000000000000000000000000000000000000000000000000000000600052602260045260246000fd5b6000600282049050600182168061143457607f821691505b602082108103611447576114466113ed565b5b50919050565b60008190508160005260206000209050919050565b6000815461146f8161141c565b61147981866112ad565b9450600182166000811461149457600181146114a5576114d8565b60ff198316865281860193506114d8565b6114ae8561144d565b60005b838110156114d0578154818901526001820191506020810190506114b1565b838801955050505b50505092915050565b60006114ed8284611462565b915081905092915050565b600061150382610cff565b91506000820361151657611515611392565b5b60018203905091905056fea264697066735822122037ac46ab9edd14733a0af49dbcd9ffd54835a46123f80f6b611b40b16f5a3e7f64736f6c634300080d0033307865343763353166353437316334663531316463333565636263626263626661343233656363643965307863633165363739313533323937346434383866383434383936313465613561333162643238383739307861654234383633663843623332363936334262333765633466394332396539306438336335373463307866393665626162333533663531663064393664613765626661303737343264653032653530633333307861323332663437343664393366353034656562303138343630623531626137373664613532646438",
  "immutableReferences": {},
  "source": "// SPDX-License-Identifier: GPL-3.0\npragma solidity ^0.8.13;\n\ncontract Users {\n    uint32 public userId = 0;\n\n\n    mapping(string => bool) isRegistered;\n    mapping(uint32 => User) public users;\n\n    struct User {\n        uint32 id;\n        string name;\n        string accountHash;\n        string role;\n    }\n\n    constructor() {\n        createUser(\"Admin\", \"0xcc1e6791532974d488f84489614ea5a31bd28879\", \"Admin\");\n        createUser(\"Importer\", \"0xf96ebab353f51f0d96da7ebfa07742de02e50c33\", \"Importer\");\n        createUser(\"Provider\", \"0xe47c51f5471c4f511dc35ecbcbbcbfa423eccd9e\", \"Provider\");\n        createUser(\"Supplier\", \"0xa232f4746d93f504eeb018460b51ba776da52dd8\", \"Supplier\");\n        createUser(\"Security\", \"0xaeB4863f8Cb326963Bb37ec4f9C29e90d83c574c\", \"Security\");\n        userId = 5;\n    }\n\n    function createUser(\n        string memory name,\n        string memory accountHash,\n        string memory role\n    ) public {\n        require(!isRegistered[accountHash], \"This account  is already registered\");\n        isRegistered[accountHash] = true;\n        userId++;\n        users[userId] = User(userId, name, accountHash, role);\n    }\n\n    function getUser(uint32 id) public view returns (User memory) {\n        return users[id];\n    }\n\n    function getUserByAccountHash(string memory accountHash)\n        public\n        view\n        returns (User memory)\n    {\n      User memory user;\n      for (uint32 i = 1; i <= userId; i++) {\n        if ( keccak256(abi.encodePacked(users[i].accountHash))==keccak256(abi.encodePacked(accountHash)) ) {\n          return users[i];\n        }\n      }\n      return user;\n    }\n\n    function updateUser(\n        uint32 id,\n        string memory name,\n        string memory accountHash,\n        string memory role\n    ) public {\n        users[id] = User(id, name, accountHash, role);\n    }\n\n    function deleteUser(uint32 id, string memory accountHash) public {\n        // require(\n        //     keccak256(abi.encodePacked(users[id].accountHash)) ==\n        //         keccak256(abi.encodePacked(accountHash)),\n        //     \"You can only delete your own account\"\n        // );\n        delete users[id];\n        delete isRegistered[accountHash];\n        userId--;\n    }\n}\n",
  "sourcePath": "D:\\decentralized-nuclear-fuel-supply-chain-platform\\contracts\\Users.sol",
  "compiler": {
    "name": "solc",
    "version": "0.8.13+commit.abaa5c0e.Emscripten.clang"
  },
  "schemaVersion": "3.4.11",
  "updatedAt": "2023-01-18T11:56:42.664Z",
  "networkType": "ethereum",
  "devdoc": {
    "kind": "dev",
    "methods": {},
    "version": 1
  },
  "userdoc": {
    "kind": "user",
    "methods": {},
    "version": 1
  }
}