{
  "contractName": "Users",
  "abi": [
    {
      "inputs": [],
      "stateMutability": "nonpayable",
      "type": "constructor"
    },
    {
      "inputs": [],
      "name": "userId",
      "outputs": [
        {
          "internalType": "uint256",
          "name": "",
          "type": "uint256"
        }
      ],
      "stateMutability": "view",
      "type": "function",
      "constant": true
    },
    {
      "inputs": [
        {
          "internalType": "uint256",
          "name": "",
          "type": "uint256"
        }
      ],
      "name": "users",
      "outputs": [
        {
          "internalType": "uint256",
          "name": "id",
          "type": "uint256"
        },
        {
          "internalType": "string",
          "name": "name",
          "type": "string"
        },
        {
          "internalType": "string",
          "name": "accountHash",
          "type": "string"
        },
        {
          "internalType": "string",
          "name": "role",
          "type": "string"
        }
      ],
      "stateMutability": "view",
      "type": "function",
      "constant": true
    },
    {
      "inputs": [
        {
          "internalType": "string",
          "name": "name",
          "type": "string"
        },
        {
          "internalType": "string",
          "name": "accountHash",
          "type": "string"
        },
        {
          "internalType": "string",
          "name": "role",
          "type": "string"
        }
      ],
      "name": "createUser",
      "outputs": [],
      "stateMutability": "nonpayable",
      "type": "function"
    },
    {
      "inputs": [
        {
          "internalType": "uint256",
          "name": "id",
          "type": "uint256"
        }
      ],
      "name": "getUser",
      "outputs": [
        {
          "components": [
            {
              "internalType": "uint256",
              "name": "id",
              "type": "uint256"
            },
            {
              "internalType": "string",
              "name": "name",
              "type": "string"
            },
            {
              "internalType": "string",
              "name": "accountHash",
              "type": "string"
            },
            {
              "internalType": "string",
              "name": "role",
              "type": "string"
            }
          ],
          "internalType": "struct Users.User",
          "name": "",
          "type": "tuple"
        }
      ],
      "stateMutability": "view",
      "type": "function",
      "constant": true
    },
    {
      "inputs": [
        {
          "internalType": "string",
          "name": "accountHash",
          "type": "string"
        }
      ],
      "name": "getUserByAccountHash",
      "outputs": [
        {
          "components": [
            {
              "internalType": "uint256",
              "name": "id",
              "type": "uint256"
            },
            {
              "internalType": "string",
              "name": "name",
              "type": "string"
            },
            {
              "internalType": "string",
              "name": "accountHash",
              "type": "string"
            },
            {
              "internalType": "string",
              "name": "role",
              "type": "string"
            }
          ],
          "internalType": "struct Users.User",
          "name": "",
          "type": "tuple"
        }
      ],
      "stateMutability": "view",
      "type": "function",
      "constant": true
    },
    {
      "inputs": [
        {
          "internalType": "uint256",
          "name": "id",
          "type": "uint256"
        },
        {
          "internalType": "string",
          "name": "name",
          "type": "string"
        },
        {
          "internalType": "string",
          "name": "accountHash",
          "type": "string"
        },
        {
          "internalType": "string",
          "name": "role",
          "type": "string"
        }
      ],
      "name": "updateUser",
      "outputs": [],
      "stateMutability": "nonpayable",
      "type": "function"
    },
    {
      "inputs": [
        {
          "internalType": "uint256",
          "name": "id",
          "type": "uint256"
        },
        {
          "internalType": "string",
          "name": "accountHash",
          "type": "string"
        }
      ],
      "name": "deleteUser",
      "outputs": [],
      "stateMutability": "nonpayable",
      "type": "function"
    }
  ],
  "bytecode": "0x6080604052600080553480156200001557600080fd5b50620000ac6040518060400160405280600681526020017f6e616d652d3100000000000000000000000000000000000000000000000000008152506040518060600160405280602a815260200162001bfb602a91396040518060400160405280600581526020017f41646d696e000000000000000000000000000000000000000000000000000000815250620000b260201b60201c565b620004f9565b600182604051620000c491906200034d565b908152602001604051809103902060009054906101000a900460ff161562000123576040517f08c379a00000000000000000000000000000000000000000000000000000000081526004016200011a90620003ed565b60405180910390fd5b600180836040516200013691906200034d565b908152602001604051809103902060006101000a81548160ff0219169083151502179055506000808154809291906200016f9062000448565b919050555060405180608001604052806000548152602001848152602001838152602001828152506002600080548152602001908152602001600020600082015181600001556020820151816001019080519060200190620001d39291906200021a565b506040820151816002019080519060200190620001f29291906200021a565b506060820151816003019080519060200190620002119291906200021a565b50905050505050565b8280546200022890620004c4565b90600052602060002090601f0160209004810192826200024c576000855562000298565b82601f106200026757805160ff191683800117855562000298565b8280016001018555821562000298579182015b82811115620002975782518255916020019190600101906200027a565b5b509050620002a79190620002ab565b5090565b5b80821115620002c6576000816000905550600101620002ac565b5090565b600081519050919050565b600081905092915050565b60005b8381101562000300578082015181840152602081019050620002e3565b8381111562000310576000848401525b50505050565b60006200032382620002ca565b6200032f8185620002d5565b935062000341818560208601620002e0565b80840191505092915050565b60006200035b828462000316565b915081905092915050565b600082825260208201905092915050565b7f54686973206163636f756e742020697320616c7265616479207265676973746560008201527f7265640000000000000000000000000000000000000000000000000000000000602082015250565b6000620003d560238362000366565b9150620003e28262000377565b604082019050919050565b600060208201905081810360008301526200040881620003c6565b9050919050565b7f4e487b7100000000000000000000000000000000000000000000000000000000600052601160045260246000fd5b6000819050919050565b600062000455826200043e565b91507fffffffffffffffffffffffffffffffffffffffffffffffffffffffffffffffff82036200048a57620004896200040f565b5b600182019050919050565b7f4e487b7100000000000000000000000000000000000000000000000000000000600052602260045260246000fd5b60006002820490506001821680620004dd57607f821691505b602082108103620004f357620004f262000495565b5b50919050565b6116f280620005096000396000f3fe608060405234801561001057600080fd5b506004361061007d5760003560e01c806359ae069b1161005b57806359ae069b146100ef5780637f0805ca1461010b578063975a584a1461013b578063b0467deb146101575761007d565b8063365b98b21461008257806358182ccc146100b557806358975919146100d1575b600080fd5b61009c60048036038101906100979190610e28565b610187565b6040516100ac9493929190610efd565b60405180910390f35b6100cf60048036038101906100ca919061108c565b61034f565b005b6100d9610489565b6040516100e691906110e8565b60405180910390f35b61010960048036038101906101049190611103565b61048f565b005b610125600480360381019061012091906111aa565b6105e8565b60405161013291906112bd565b60405180910390f35b610155600480360381019061015091906112df565b610a48565b005b610171600480360381019061016c9190610e28565b610ae6565b60405161017e91906112bd565b60405180910390f35b60026020528060005260406000206000915090508060000154908060010180546101b0906113c9565b80601f01602080910402602001604051908101604052809291908181526020018280546101dc906113c9565b80156102295780601f106101fe57610100808354040283529160200191610229565b820191906000526020600020905b81548152906001019060200180831161020c57829003601f168201915b50505050509080600201805461023e906113c9565b80601f016020809104026020016040519081016040528092919081815260200182805461026a906113c9565b80156102b75780601f1061028c576101008083540402835291602001916102b7565b820191906000526020600020905b81548152906001019060200180831161029a57829003601f168201915b5050505050908060030180546102cc906113c9565b80601f01602080910402602001604051908101604052809291908181526020018280546102f8906113c9565b80156103455780601f1061031a57610100808354040283529160200191610345565b820191906000526020600020905b81548152906001019060200180831161032857829003601f168201915b5050505050905084565b806040516020016103609190611436565b604051602081830303815290604052805190602001206002600084815260200190815260200160002060020160405160200161039c91906114e1565b60405160208183030381529060405280519060200120146103f2576040517f08c379a00000000000000000000000000000000000000000000000000000000081526004016103e99061156a565b60405180910390fd5b6002600083815260200190815260200160002060008082016000905560018201600061041e9190610cd3565b60028201600061042e9190610cd3565b60038201600061043e9190610cd3565b50506001816040516104509190611436565b908152602001604051809103902060006101000a81549060ff0219169055600080815480929190610480906115b9565b91905055505050565b60005481565b60018260405161049f9190611436565b908152602001604051809103902060009054906101000a900460ff16156104fb576040517f08c379a00000000000000000000000000000000000000000000000000000000081526004016104f290611654565b60405180910390fd5b6001808360405161050c9190611436565b908152602001604051809103902060006101000a81548160ff02191690831515021790555060008081548092919061054390611674565b9190505550604051806080016040528060005481526020018481526020018381526020018281525060026000805481526020019081526020016000206000820151816000015560208201518160010190805190602001906105a5929190610d13565b5060408201518160020190805190602001906105c2929190610d13565b5060608201518160030190805190602001906105df929190610d13565b50905050505050565b6105f0610d99565b6000600190505b600054811161086157826040516020016106119190611436565b604051602081830303815290604052805190602001206002600083815260200190815260200160002060020160405160200161064d91906114e1565b604051602081830303815290604052805190602001200361084e5760026000828152602001908152602001600020604051806080016040529081600082015481526020016001820180546106a0906113c9565b80601f01602080910402602001604051908101604052809291908181526020018280546106cc906113c9565b80156107195780601f106106ee57610100808354040283529160200191610719565b820191906000526020600020905b8154815290600101906020018083116106fc57829003601f168201915b50505050508152602001600282018054610732906113c9565b80601f016020809104026020016040519081016040528092919081815260200182805461075e906113c9565b80156107ab5780601f10610780576101008083540402835291602001916107ab565b820191906000526020600020905b81548152906001019060200180831161078e57829003601f168201915b505050505081526020016003820180546107c4906113c9565b80601f01602080910402602001604051908101604052809291908181526020018280546107f0906113c9565b801561083d5780601f106108125761010080835404028352916020019161083d565b820191906000526020600020905b81548152906001019060200180831161082057829003601f168201915b505050505081525050915050610a43565b808061085990611674565b9150506105f7565b50600260008081526020019081526020016000206040518060800160405290816000820154815260200160018201805461089a906113c9565b80601f01602080910402602001604051908101604052809291908181526020018280546108c6906113c9565b80156109135780601f106108e857610100808354040283529160200191610913565b820191906000526020600020905b8154815290600101906020018083116108f657829003601f168201915b5050505050815260200160028201805461092c906113c9565b80601f0160208091040260200160405190810160405280929190818152602001828054610958906113c9565b80156109a55780601f1061097a576101008083540402835291602001916109a5565b820191906000526020600020905b81548152906001019060200180831161098857829003601f168201915b505050505081526020016003820180546109be906113c9565b80601f01602080910402602001604051908101604052809291908181526020018280546109ea906113c9565b8015610a375780601f10610a0c57610100808354040283529160200191610a37565b820191906000526020600020905b815481529060010190602001808311610a1a57829003601f168201915b50505050508152505090505b919050565b60405180608001604052808581526020018481526020018381526020018281525060026000868152602001908152602001600020600082015181600001556020820151816001019080519060200190610aa2929190610d13565b506040820151816002019080519060200190610abf929190610d13565b506060820151816003019080519060200190610adc929190610d13565b5090505050505050565b610aee610d99565b6002600083815260200190815260200160002060405180608001604052908160008201548152602001600182018054610b26906113c9565b80601f0160208091040260200160405190810160405280929190818152602001828054610b52906113c9565b8015610b9f5780601f10610b7457610100808354040283529160200191610b9f565b820191906000526020600020905b815481529060010190602001808311610b8257829003601f168201915b50505050508152602001600282018054610bb8906113c9565b80601f0160208091040260200160405190810160405280929190818152602001828054610be4906113c9565b8015610c315780601f10610c0657610100808354040283529160200191610c31565b820191906000526020600020905b815481529060010190602001808311610c1457829003601f168201915b50505050508152602001600382018054610c4a906113c9565b80601f0160208091040260200160405190810160405280929190818152602001828054610c76906113c9565b8015610cc35780601f10610c9857610100808354040283529160200191610cc3565b820191906000526020600020905b815481529060010190602001808311610ca657829003601f168201915b5050505050815250509050919050565b508054610cdf906113c9565b6000825580601f10610cf15750610d10565b601f016020900490600052602060002090810190610d0f9190610dc1565b5b50565b828054610d1f906113c9565b90600052602060002090601f016020900481019282610d415760008555610d88565b82601f10610d5a57805160ff1916838001178555610d88565b82800160010185558215610d88579182015b82811115610d87578251825591602001919060010190610d6c565b5b509050610d959190610dc1565b5090565b6040518060800160405280600081526020016060815260200160608152602001606081525090565b5b80821115610dda576000816000905550600101610dc2565b5090565b6000604051905090565b600080fd5b600080fd5b6000819050919050565b610e0581610df2565b8114610e1057600080fd5b50565b600081359050610e2281610dfc565b92915050565b600060208284031215610e3e57610e3d610de8565b5b6000610e4c84828501610e13565b91505092915050565b610e5e81610df2565b82525050565b600081519050919050565b600082825260208201905092915050565b60005b83811015610e9e578082015181840152602081019050610e83565b83811115610ead576000848401525b50505050565b6000601f19601f8301169050919050565b6000610ecf82610e64565b610ed98185610e6f565b9350610ee9818560208601610e80565b610ef281610eb3565b840191505092915050565b6000608082019050610f126000830187610e55565b8181036020830152610f248186610ec4565b90508181036040830152610f388185610ec4565b90508181036060830152610f4c8184610ec4565b905095945050505050565b600080fd5b600080fd5b7f4e487b7100000000000000000000000000000000000000000000000000000000600052604160045260246000fd5b610f9982610eb3565b810181811067ffffffffffffffff82111715610fb857610fb7610f61565b5b80604052505050565b6000610fcb610dde565b9050610fd78282610f90565b919050565b600067ffffffffffffffff821115610ff757610ff6610f61565b5b61100082610eb3565b9050602081019050919050565b82818337600083830152505050565b600061102f61102a84610fdc565b610fc1565b90508281526020810184848401111561104b5761104a610f5c565b5b61105684828561100d565b509392505050565b600082601f83011261107357611072610f57565b5b813561108384826020860161101c565b91505092915050565b600080604083850312156110a3576110a2610de8565b5b60006110b185828601610e13565b925050602083013567ffffffffffffffff8111156110d2576110d1610ded565b5b6110de8582860161105e565b9150509250929050565b60006020820190506110fd6000830184610e55565b92915050565b60008060006060848603121561111c5761111b610de8565b5b600084013567ffffffffffffffff81111561113a57611139610ded565b5b6111468682870161105e565b935050602084013567ffffffffffffffff81111561116757611166610ded565b5b6111738682870161105e565b925050604084013567ffffffffffffffff81111561119457611193610ded565b5b6111a08682870161105e565b9150509250925092565b6000602082840312156111c0576111bf610de8565b5b600082013567ffffffffffffffff8111156111de576111dd610ded565b5b6111ea8482850161105e565b91505092915050565b6111fc81610df2565b82525050565b600082825260208201905092915050565b600061121e82610e64565b6112288185611202565b9350611238818560208601610e80565b61124181610eb3565b840191505092915050565b600060808301600083015161126460008601826111f3565b506020830151848203602086015261127c8282611213565b915050604083015184820360408601526112968282611213565b915050606083015184820360608601526112b08282611213565b9150508091505092915050565b600060208201905081810360008301526112d7818461124c565b905092915050565b600080600080608085870312156112f9576112f8610de8565b5b600061130787828801610e13565b945050602085013567ffffffffffffffff81111561132857611327610ded565b5b6113348782880161105e565b935050604085013567ffffffffffffffff81111561135557611354610ded565b5b6113618782880161105e565b925050606085013567ffffffffffffffff81111561138257611381610ded565b5b61138e8782880161105e565b91505092959194509250565b7f4e487b7100000000000000000000000000000000000000000000000000000000600052602260045260246000fd5b600060028204905060018216806113e157607f821691505b6020821081036113f4576113f361139a565b5b50919050565b600081905092915050565b600061141082610e64565b61141a81856113fa565b935061142a818560208601610e80565b80840191505092915050565b60006114428284611405565b915081905092915050565b60008190508160005260206000209050919050565b6000815461146f816113c9565b61147981866113fa565b9450600182166000811461149457600181146114a5576114d8565b60ff198316865281860193506114d8565b6114ae8561144d565b60005b838110156114d0578154818901526001820191506020810190506114b1565b838801955050505b50505092915050565b60006114ed8284611462565b915081905092915050565b7f596f752063616e206f6e6c792064656c65746520796f7572206f776e2061636360008201527f6f756e7400000000000000000000000000000000000000000000000000000000602082015250565b6000611554602483610e6f565b915061155f826114f8565b604082019050919050565b6000602082019050818103600083015261158381611547565b9050919050565b7f4e487b7100000000000000000000000000000000000000000000000000000000600052601160045260246000fd5b60006115c482610df2565b9150600082036115d7576115d661158a565b5b600182039050919050565b7f54686973206163636f756e742020697320616c7265616479207265676973746560008201527f7265640000000000000000000000000000000000000000000000000000000000602082015250565b600061163e602383610e6f565b9150611649826115e2565b604082019050919050565b6000602082019050818103600083015261166d81611631565b9050919050565b600061167f82610df2565b91507fffffffffffffffffffffffffffffffffffffffffffffffffffffffffffffffff82036116b1576116b061158a565b5b60018201905091905056fea264697066735822122087d492b797e1c3334d4c38bcac48bdc98510e8ba0dec74d977c942e84e7bd2d764736f6c634300080d0033307863633165363739313533323937346434383866383434383936313465613561333162643238383739",
  "immutableReferences": {},
  "source": "// SPDX-License-Identifier: GPL-3.0\npragma solidity ^0.8.13;\n\ncontract Users {\n    uint256 public userId = 0;\n\n    mapping(string => bool) isRegistered;\n    mapping(uint256 => User) public users;\n\n    struct User {\n        uint256 id;\n        string name;\n        string accountHash;\n        string role;\n    }\n\n    constructor() {\n        createUser(\"name-1\", \"0xcc1e6791532974d488f84489614ea5a31bd28879\", \"Admin\");\n        // createUser(\"name-2\", \"email2@m.com\", \"123\");\n        // createUser(\"name-3\", \"email3@m.com\", \"123\");\n    }\n\n\n    function createUser(\n        string memory name,\n        string memory accountHash,\n        string memory role\n    ) public {\n      // TODO: admin check\n        require(!isRegistered[accountHash], \"This account  is already registered\");\n        isRegistered[accountHash] = true;\n        userId++;\n        users[userId] = User(userId, name, accountHash, role);\n    }\n\n    function getUser(uint256 id) public view returns (User memory) {\n        return users[id];\n    }\n\n    function getUserByAccountHash(string memory accountHash)\n        public\n        view\n        returns (User memory)\n    {\n        for (uint256 i = 1; i <= userId; i++) {\n            if (\n                keccak256(abi.encodePacked(users[i].accountHash)) ==\n                keccak256(abi.encodePacked(accountHash))\n            ) {\n                return users[i];\n            }\n        }\n        return users[0];\n    }\n\n    function updateUser(\n        uint256 id,\n        string memory name,\n        string memory accountHash,\n        string memory role\n    ) public {\n        // TODO: admin check\n        // require(\n        //     keccak256(abi.encodePacked(users[id].accountHash)) ==\n        //         keccak256(abi.encodePacked(accountHash)),\n        //     \"You can only update your own account\"\n        // );\n        users[id] = User(id, name, accountHash, role);\n    }\n\n    function deleteUser(uint256 id, string memory accountHash) public {\n        require(\n            keccak256(abi.encodePacked(users[id].accountHash)) ==\n                keccak256(abi.encodePacked(accountHash)),\n            \"You can only delete your own account\"\n        );\n        delete users[id];\n        delete isRegistered[accountHash];\n        userId--;\n    }\n}\n",
  "sourcePath": "D:\\decentralized-nuclear-fuel-supply-chain-platform\\contracts\\Users.sol",
  "compiler": {
    "name": "solc",
    "version": "0.8.13+commit.abaa5c0e.Emscripten.clang"
  },
  "schemaVersion": "3.4.11",
  "updatedAt": "2022-12-23T16:06:31.535Z",
  "networkType": "ethereum",
  "devdoc": {
    "kind": "dev",
    "methods": {},
    "version": 1
  },
  "userdoc": {
    "kind": "user",
    "methods": {},
    "version": 1
  }
}